{
  "contractName": "DocuWallet",
  "abi": [
    {
      "constant": true,
      "inputs": [],
      "name": "getUserFiles",
      "outputs": [
        {
          "components": [
            {
              "internalType": "string",
              "name": "name",
              "type": "string"
            },
            {
              "internalType": "string",
              "name": "fileType",
              "type": "string"
            },
            {
              "internalType": "string",
              "name": "ipfsHash",
              "type": "string"
            },
            {
              "internalType": "string",
              "name": "id",
              "type": "string"
            },
            {
              "internalType": "uint256",
              "name": "updateTime",
              "type": "uint256"
            }
          ],
          "internalType": "struct DocuWallet.File[]",
          "name": "",
          "type": "tuple[]"
        }
      ],
      "payable": false,
      "stateMutability": "view",
      "type": "function"
    },
    {
      "constant": false,
      "inputs": [
        {
          "internalType": "string",
          "name": "_name",
          "type": "string"
        },
        {
          "internalType": "string",
          "name": "_fileType",
          "type": "string"
        },
        {
          "internalType": "string",
          "name": "_ipfsHash",
          "type": "string"
        },
        {
          "internalType": "string",
          "name": "_id",
          "type": "string"
        }
      ],
      "name": "addFile",
      "outputs": [],
      "payable": false,
      "stateMutability": "nonpayable",
      "type": "function"
    },
    {
      "constant": true,
      "inputs": [
        {
          "internalType": "string",
          "name": "_id",
          "type": "string"
        }
      ],
      "name": "getFileDetails",
      "outputs": [
        {
          "components": [
            {
              "internalType": "string",
              "name": "name",
              "type": "string"
            },
            {
              "internalType": "string",
              "name": "fileType",
              "type": "string"
            },
            {
              "internalType": "string",
              "name": "ipfsHash",
              "type": "string"
            },
            {
              "internalType": "string",
              "name": "id",
              "type": "string"
            },
            {
              "internalType": "uint256",
              "name": "updateTime",
              "type": "uint256"
            }
          ],
          "internalType": "struct DocuWallet.File",
          "name": "",
          "type": "tuple"
        }
      ],
      "payable": false,
      "stateMutability": "view",
      "type": "function"
    },
    {
      "constant": true,
      "inputs": [
        {
          "internalType": "string",
          "name": "a",
          "type": "string"
        },
        {
          "internalType": "string",
          "name": "b",
          "type": "string"
        }
      ],
      "name": "compareStrings",
      "outputs": [
        {
          "internalType": "bool",
          "name": "",
          "type": "bool"
        }
      ],
      "payable": false,
      "stateMutability": "pure",
      "type": "function"
    }
  ],
  "bytecode": "0x608060405234801561001057600080fd5b5061166f806100206000396000f3fe608060405234801561001057600080fd5b506004361061004c5760003560e01c8063049575051461005157806311942989146100815780635f067db01461009f578063bed34bba146100bb575b600080fd5b61006b60048036036100669190810190610fcd565b6100eb565b60405161007891906114cc565b60405180910390f35b6100896105d7565b604051610096919061144f565b60405180910390f35b6100b960048036036100b49190810190611012565b610904565b005b6100d560048036036100d091908101906110e7565b610e02565b6040516100e29190611471565b60405180910390f35b6100f3610e5b565b3373ffffffffffffffffffffffffffffffffffffffff166001848460405161011c92919061141f565b908152602001604051809103902060009054906101000a900473ffffffffffffffffffffffffffffffffffffffff1673ffffffffffffffffffffffffffffffffffffffff16146101a1576040517f08c379a0000000000000000000000000000000000000000000000000000000008152600401610198906114ac565b60405180910390fd5b60606000803373ffffffffffffffffffffffffffffffffffffffff1673ffffffffffffffffffffffffffffffffffffffff168152602001908152602001600020805480602002602001604051908101604052809291908181526020016000905b828210156104c557838290600052602060002090600502016040518060a0016040529081600082018054600181600116156101000203166002900480601f0160208091040260200160405190810160405280929190818152602001828054600181600116156101000203166002900480156102bd5780601f10610292576101008083540402835291602001916102bd565b820191906000526020600020905b8154815290600101906020018083116102a057829003601f168201915b50505050508152602001600182018054600181600116156101000203166002900480601f01602080910402602001604051908101604052809291908181526020018280546001816001161561010002031660029004801561035f5780601f106103345761010080835404028352916020019161035f565b820191906000526020600020905b81548152906001019060200180831161034257829003601f168201915b50505050508152602001600282018054600181600116156101000203166002900480601f0160208091040260200160405190810160405280929190818152602001828054600181600116156101000203166002900480156104015780601f106103d657610100808354040283529160200191610401565b820191906000526020600020905b8154815290600101906020018083116103e457829003601f168201915b50505050508152602001600382018054600181600116156101000203166002900480601f0160208091040260200160405190810160405280929190818152602001828054600181600116156101000203166002900480156104a35780601f10610478576101008083540402835291602001916104a3565b820191906000526020600020905b81548152906001019060200180831161048657829003601f168201915b5050505050815260200160048201548152505081526020019060010190610201565b50505050905060008090505b8151811015610568576104e2610e5b565b8282815181106104ee57fe5b6020026020010151905061054a816060015187878080601f016020809104026020016040519081016040528093929190818152602001838380828437600081840152601f19601f82011690508083019250505050505050610e02565b1561055a578093505050506105d1565b5080806001019150506104d1565b506040518060a0016040528060405180602001604052806000815250815260200160405180602001604052806000815250815260200160405180602001604052806000815250815260200160405180602001604052806000815250815260200160008152509150505b92915050565b60606000803373ffffffffffffffffffffffffffffffffffffffff1673ffffffffffffffffffffffffffffffffffffffff168152602001908152602001600020805480602002602001604051908101604052809291908181526020016000905b828210156108fb57838290600052602060002090600502016040518060a0016040529081600082018054600181600116156101000203166002900480601f0160208091040260200160405190810160405280929190818152602001828054600181600116156101000203166002900480156106f35780601f106106c8576101008083540402835291602001916106f3565b820191906000526020600020905b8154815290600101906020018083116106d657829003601f168201915b50505050508152602001600182018054600181600116156101000203166002900480601f0160208091040260200160405190810160405280929190818152602001828054600181600116156101000203166002900480156107955780601f1061076a57610100808354040283529160200191610795565b820191906000526020600020905b81548152906001019060200180831161077857829003601f168201915b50505050508152602001600282018054600181600116156101000203166002900480601f0160208091040260200160405190810160405280929190818152602001828054600181600116156101000203166002900480156108375780601f1061080c57610100808354040283529160200191610837565b820191906000526020600020905b81548152906001019060200180831161081a57829003601f168201915b50505050508152602001600382018054600181600116156101000203166002900480601f0160208091040260200160405190810160405280929190818152602001828054600181600116156101000203166002900480156108d95780601f106108ae576101008083540402835291602001916108d9565b820191906000526020600020905b8154815290600101906020018083116108bc57829003601f168201915b5050505050815260200160048201548152505081526020019060010190610637565b50505050905090565b61096188888080601f016020809104026020016040519081016040528093929190818152602001838380828437600081840152601f19601f8201169050808301925050505050505060405180602001604052806000815250610e02565b156109a1576040517f08c379a00000000000000000000000000000000000000000000000000000000081526004016109989061148c565b60405180910390fd5b6109fe86868080601f016020809104026020016040519081016040528093929190818152602001838380828437600081840152601f19601f8201169050808301925050505050505060405180602001604052806000815250610e02565b15610a3e576040517f08c379a0000000000000000000000000000000000000000000000000000000008152600401610a359061148c565b60405180910390fd5b610a9b84848080601f016020809104026020016040519081016040528093929190818152602001838380828437600081840152601f19601f8201169050808301925050505050505060405180602001604052806000815250610e02565b15610adb576040517f08c379a0000000000000000000000000000000000000000000000000000000008152600401610ad29061148c565b60405180910390fd5b610b3882828080601f016020809104026020016040519081016040528093929190818152602001838380828437600081840152601f19601f8201169050808301925050505050505060405180602001604052806000815250610e02565b15610b78576040517f08c379a0000000000000000000000000000000000000000000000000000000008152600401610b6f9061148c565b60405180910390fd5b6000803373ffffffffffffffffffffffffffffffffffffffff1673ffffffffffffffffffffffffffffffffffffffff1681526020019081526020016000206040518060a001604052808a8a8080601f016020809104026020016040519081016040528093929190818152602001838380828437600081840152601f19601f82011690508083019250505050505050815260200188888080601f016020809104026020016040519081016040528093929190818152602001838380828437600081840152601f19601f82011690508083019250505050505050815260200186868080601f016020809104026020016040519081016040528093929190818152602001838380828437600081840152601f19601f82011690508083019250505050505050815260200184848080601f016020809104026020016040519081016040528093929190818152602001838380828437600081840152601f19601f82011690508083019250505050505050815260200142815250908060018154018082558091505090600182039060005260206000209060050201600090919290919091506000820151816000019080519060200190610d34929190610e8a565b506020820151816001019080519060200190610d51929190610e8a565b506040820151816002019080519060200190610d6e929190610e8a565b506060820151816003019080519060200190610d8b929190610e8a565b50608082015181600401555050503360018383604051610dac92919061141f565b908152602001604051809103902060006101000a81548173ffffffffffffffffffffffffffffffffffffffff021916908373ffffffffffffffffffffffffffffffffffffffff1602179055505050505050505050565b600081604051602001610e159190611438565b6040516020818303038152906040528051906020012083604051602001610e3c9190611438565b6040516020818303038152906040528051906020012014905092915050565b6040518060a0016040528060608152602001606081526020016060815260200160608152602001600081525090565b828054600181600116156101000203166002900490600052602060002090601f016020900481019282601f10610ecb57805160ff1916838001178555610ef9565b82800160010185558215610ef9579182015b82811115610ef8578251825591602001919060010190610edd565b5b509050610f069190610f0a565b5090565b610f2c91905b80821115610f28576000816000905550600101610f10565b5090565b90565b60008083601f840112610f4157600080fd5b8235905067ffffffffffffffff811115610f5a57600080fd5b602083019150836001820283011115610f7257600080fd5b9250929050565b600082601f830112610f8a57600080fd5b8135610f9d610f988261151b565b6114ee565b91508082526020830160208301858383011115610fb957600080fd5b610fc48382846115d9565b50505092915050565b60008060208385031215610fe057600080fd5b600083013567ffffffffffffffff811115610ffa57600080fd5b61100685828601610f2f565b92509250509250929050565b6000806000806000806000806080898b03121561102e57600080fd5b600089013567ffffffffffffffff81111561104857600080fd5b6110548b828c01610f2f565b9850985050602089013567ffffffffffffffff81111561107357600080fd5b61107f8b828c01610f2f565b9650965050604089013567ffffffffffffffff81111561109e57600080fd5b6110aa8b828c01610f2f565b9450945050606089013567ffffffffffffffff8111156110c957600080fd5b6110d58b828c01610f2f565b92509250509295985092959890939650565b600080604083850312156110fa57600080fd5b600083013567ffffffffffffffff81111561111457600080fd5b61112085828601610f79565b925050602083013567ffffffffffffffff81111561113d57600080fd5b61114985828601610f79565b9150509250929050565b600061115f8383611385565b905092915050565b600061117282611557565b61117c8185611585565b93508360208202850161118e85611547565b8060005b858110156111ca57848403895281516111ab8582611153565b94506111b683611578565b925060208a01995050600181019050611192565b50829750879550505050505092915050565b6111e5816115c3565b82525050565b60006111f783856115b8565b93506112048385846115d9565b82840190509392505050565b600061121b8261156d565b61122581856115b8565b93506112358185602086016115e8565b80840191505092915050565b600061124c82611562565b6112568185611596565b93506112668185602086016115e8565b61126f8161161b565b840191505092915050565b60006112876016836115a7565b91507f44617461206d757374206e6f7420626520656d707479000000000000000000006000830152602082019050919050565b60006112c76016836115a7565b91507f53656e646572206e6f7420617574686f72697a65642e000000000000000000006000830152602082019050919050565b600060a08301600083015184820360008601526113178282611241565b915050602083015184820360208601526113318282611241565b9150506040830151848203604086015261134b8282611241565b915050606083015184820360608601526113658282611241565b915050608083015161137a6080860182611410565b508091505092915050565b600060a08301600083015184820360008601526113a28282611241565b915050602083015184820360208601526113bc8282611241565b915050604083015184820360408601526113d68282611241565b915050606083015184820360608601526113f08282611241565b91505060808301516114056080860182611410565b508091505092915050565b611419816115cf565b82525050565b600061142c8284866111eb565b91508190509392505050565b60006114448284611210565b915081905092915050565b600060208201905081810360008301526114698184611167565b905092915050565b600060208201905061148660008301846111dc565b92915050565b600060208201905081810360008301526114a58161127a565b9050919050565b600060208201905081810360008301526114c5816112ba565b9050919050565b600060208201905081810360008301526114e681846112fa565b905092915050565b6000604051905081810181811067ffffffffffffffff8211171561151157600080fd5b8060405250919050565b600067ffffffffffffffff82111561153257600080fd5b601f19601f8301169050602081019050919050565b6000819050602082019050919050565b600081519050919050565b600081519050919050565b600081519050919050565b6000602082019050919050565b600082825260208201905092915050565b600082825260208201905092915050565b600082825260208201905092915050565b600081905092915050565b60008115159050919050565b6000819050919050565b82818337600083830152505050565b60005b838110156116065780820151818401526020810190506115eb565b83811115611615576000848401525b50505050565b6000601f19601f830116905091905056fea365627a7a72315820444e041df6cfbb7eae9a91f9247009c53fb6e654ca408c06d8014738ddbb0cc86c6578706572696d656e74616cf564736f6c63430005100040",
  "source": "// SPDX-License-Identifier: GPL-3.0\npragma solidity >=0.5.0 <0.9.0;\npragma experimental ABIEncoderV2;\n\ncontract DocuWallet {\n    struct File {\n        string name;\n        string fileType;\n        string ipfsHash;\n        string id;\n        uint updateTime;\n    }\n\n    mapping (address => File[]) userFiles;\n    mapping (string => address) fileIdToOwner;\n\n    function getUserFiles() view external returns (File[] memory) {\n        return userFiles[msg.sender];\n    }\n\n    function addFile(string calldata _name, string calldata _fileType, string calldata _ipfsHash, string calldata _id) external {\n        require(!compareStrings(_name, ''), \"Data must not be empty\");\n        require(!compareStrings(_fileType, ''), \"Data must not be empty\");\n        require(!compareStrings(_ipfsHash, ''), \"Data must not be empty\");\n        require(!compareStrings(_id, ''), \"Data must not be empty\");\n\n        userFiles[msg.sender].push(File(_name, _fileType, _ipfsHash, _id, block.timestamp));\n        fileIdToOwner[_id] = msg.sender;\n    }\n\n    function getFileDetails(string calldata _id) view external returns(File memory) {\n        require(fileIdToOwner[_id] == msg.sender, \"Sender not authorized.\");\n        File[] memory files = userFiles[msg.sender];\n        for (uint i = 0; i < files.length; i++) {\n            File memory file = files[i];\n            if (compareStrings(file.id, _id)) {\n                return file;\n            }\n        }\n\n        return File('', '', '', '', 0);\n    }\n\n    function compareStrings(string memory a, string memory b) public pure returns (bool) {\n        return (keccak256(abi.encodePacked((a))) == keccak256(abi.encodePacked((b))));\n    }\n}\n",
  "sourcePath": "/Users/amitkhonde/Documents/personal/docuwallet/contracts/DocuWallet.sol",
  "compiler": {
    "name": "solc",
    "version": "0.5.16+commit.9c3226ce.Emscripten.clang"
  },
  "schemaVersion": "3.4.3",
  "updatedAt": "2021-12-24T04:02:10.246Z",
  "devdoc": {
    "methods": {}
  },
  "userdoc": {
    "methods": {}
  }
}